:100000000C94DB010C9422020C943D020C9422020D
:100010000C9422020C9422020C94D51B0C94220204
:100020000C9422020C9422020C9422020C942202C0
:100030000C9422020C9422020C94B11B0C94220208
:100040000C9422020C9422020C9422020C942202A0
:100050000C9422020C9422020C9422020C94220290
:100060000C9422020C942202290014001A000800A9
:10007000150017001C0018000C00120013003500BA
:10008000390004001600070009000A000B000D00EB
:100090000E000F0034002800E1001D001B000600C8
:1000A0001900050011001000360037003800E50087
:1000B000E000E300E20000002C0000002C00000043
:1000C000E6000151E4002A002B001E001F00200062
:1000D00021002200230024002500260027003500EF
:1000E000A9000100010001000100010050005100C1
:1000F00052004F0034002800AA0001000100010056
:1001000001000100010001002D002E003800010057
:10011000005C01000100000001000000010000007F
:100120000100010001004C0001000100010001007C
:1001300001000100010001000100010001000100B7
:1001400001000100010001000100010001000100A7
:100150000100010001000100010001000100010097
:100160000100010001000100010001000100010087
:10017000010001000100000001000000010000007A
:10018000010001000100010000000000000000006B
:10019000000000000000000000000000000000005F
:1001A0000000000000000000000000007E0F00D4EE
:1001B000FFFFFFC700000078000000000000000003
:1001C0002A2B2800000000000000000000000000B2
:1001D00000000029000000002C1E342021222434BD
:1001E0002627252E362D3738271E1F20212223248F
:1001F00025263333362E37381F0405060708090A2B
:100200000B0C0D0E0F101112131415161718191AC6
:100210001B1C1D2F3130232D350405060708090A44
:100220000B0C0D0E0F101112131415161718191AA6
:100230001B1C1D2F3130354C05010902A10185021F
:100240000901A100050919012908150025019508D2
:10025000750181020501093009311581257F95025B
:100260007508810609381581257F95017508810675
:10027000050C0A38021581257F950175088106C095
:10028000C005010980A101850319012AB7001501E4
:1002900026B700950175108100C0050C0901A10168
:1002A000850419012AA002150126A00295017510E6
:1002B0008100C00660FF0961A1010962150026FFE7
:1002C000009520750881020963150026FF0095201E
:1002D00075089102C005010906A101050719E02969
:1002E000E7150025019508750181029501750881C2
:1002F000030507190029FF150026FF00950675085C
:1003000081000508190129059505750191029501DE
:1003100075039103C00C0352004F004D0045004F80
:10032000000000200363006F007300650079006621
:100330000061006E006E0069007400750074007446
:1003400000690000000403090409025B00030100C6
:10035000A0FA0904000001030101000921010100C4
:100360000122400007058103080001090401000281
:100370000300000009210101000122220007058479
:100380000308000107050403080001090402000135
:1003900003000000092101010001227B0007058301
:1003A00003080001120110010000000841415450EF
:1003B00002000102000111241FBECFEFD8E0DEBF12
:1003C000CDBF04B603FE27C08091FA029091FB02D4
:1003D000A091FC02B091FD028730904BA740B04B3A
:1003E000D1F41092FA021092FB021092FC021092C9
:1003F000FD0214BE84B7877F84BF0FB6F894A8951A
:1004000080916000886180936000109260000FBE50
:10041000E0E0F8E3099522E0AEE4B1E001C01D920E
:10042000AA3FB207E1F711E0A0E0B1E0E4E4F9E3AC
:1004300002C005900D92AE34B107D9F70E9459174A
:100440000C94731C0C940000A82FB92F80E090E04E
:1004500041E050EA609530E009C02D9182279795E0
:10046000879510F084279527305EC8F36F5FA8F357
:100470000895EADF8D939D930895CF93CFB7CF93DF
:10048000DF93C3954B9BE9F74B9B10C04B9B0EC072
:100490004B9B0CC04B9B0AC04B9B08C04B9B06C0A0
:1004A000C091D402C395C093D4028EC06F93C09103
:1004B000D302DD27C852DD4F2F9365E54B9B03C068
:1004C0002F916F91E1CF0F931F934F9320E040E165
:1004D0005F9309B10C7003FB27F93F9350E03BE0B9
:1004E00039C01C7040642F77012F5F5F1EC04068C9
:1004F00019B11C702F7752501FC0406409B12F777B
:100500000C70D1F15F5F00C023C0406219B12F773A
:100510001C7091F15F5F00C025C00C701027515016
:1005200012F45D5F0000115027952C3F19B1C8F6F9
:100530001C700127015027952C3FC8F6422749938C
:1005400009B10C7010274F73115027952C3FA8F656
:100550004695469519B11C7079F0012701502795F1
:100560002C3F98F66B5A60F3315009B1B0F600C0D9
:1005700012E01CBB00271CC03B503195C31BD04070
:1005800012E01CBB0881033C21F10B3411F12091D6
:10059000D1021981110F1213EDCF4A81441F093680
:1005A00079F10D3211F0013E29F74F7009F0042F57
:1005B0000093D7023F915F914F911F910F912F911F
:1005C0006F91CCB3C1FD5DCFDF91CF91CFBFCF9104
:1005D00018952091D702222369F31091D502112397
:1005E00009F049C034300AF448C03093D502209352
:1005F000D2021091D3023BE0311B3093D3023DC0B5
:100600000091D5020130BCF50AE54F7049F43091F4
:100610000B0134FD33C000930B01CEEAD2E032C0AF
:10062000433059F0443091F03091B90234FD26C086
:100630000093B902CAEBD2E025C03091EE0234FD3E
:100640001DC00093EE02CFEED2E01CC03091C50277
:1006500034FD14C00093C502C6ECD2E013C00527D8
:1006600010E000C000000BB91AC0052710E0221FDF
:100670001DC010E021C04AE502C032ED432FC4E1A5
:10068000D0E032E01AB11C605B9A0BB11AB95CE0A1
:1006900020E865E320FF05270BB9279517951C3F38
:1006A000F0F66695B8F7B1F720FF05270BB9279547
:1006B00017951C3FD0F62795179517FF05270000C3
:1006C0001C3F0BB9B0F629913A9519F7037F1091A9
:1006D000D602110FC651D0400BB911F01093D102C0
:1006E00012E01CBB08601AB1137F402F437F54E017
:1006F0005A95F1F70BB91AB94BB95CCFFC0183815C
:10070000833089F130F48130F1F0823021F180E0E2
:100710000895813209F446C08232C9F724813581B7
:100720002130310509F45CC02115310509F450C0B0
:100730002230310561F788E392E09093A60280931E
:10074000A5028BE7089584EA93E09093A602809334
:10075000A50282E1089589E493E09093A602809334
:10076000A5028BE5089582818130A1F0882351F0A4
:10077000823069F685E193E09093A6028093A5020A
:100780008CE0089585E493E09093A6028093A502FF
:1007900084E0089583E293E09093A6028093A502FB
:1007A00080E208958281813081F0882331F08230A7
:1007B00009F0ADCF84E993E002C08BE593E090931C
:1007C000A6028093A50289E0089584E793E0F7CF1D
:1007D00085ED92E09093A6028093A50280E40895AF
:1007E00023EB32E03093A6022093A5020895809176
:1007F000A002089580E0089588E198E00FB6F8948B
:10080000A895809360000FBE90936000A895F8941F
:10081000D8E0CEEF28E3299320E0299314BEFFCF40
:1008200008959C014FB7F8948091EB019091EC01F1
:10083000A091ED01B091EE014FBF821B930B089583
:100840002FB7F8948091EB019091EC01A091ED010C
:10085000B091EE012FBF08958091BB0181111092DC
:10086000BB0108958091BA019091B901892B9091B3
:10087000B801892B809350019091BB01992391F08D
:10088000892B8093500120E082E591E0FC013191B9
:10089000CF0131112F5FF1E088359F07B9F72111A2
:1008A0000E942C04E091CB01F091CC01309731F003
:1008B0000280F381E02D80E591E009940895E2E55E
:1008C000F1E09191891303C0DF0111971C9291E02F
:1008D000E835F907B1F70895A2E5B1E0EFEF90E050
:1008E0002D91821751F0EF3F19F4211101C0E92F2A
:1008F0009F5F9630A9F7EF3F09F408950E2E000C84
:10090000FF0BE05BFE4F828308952CE0929F800DE9
:100910001124982F977086958695869525E0829F5D
:10092000F0011124E756FE4F50E040E080E02191B5
:1009300030E0092E02C0369527950A94E2F721701F
:100940003327042E01C0220F0A94EAF7822B4F5F4F
:100950005F4F4530510559F708952CE0929F800D67
:100960001124982F977041E001C0440F9A95EAF73F
:1009700086958695869595E0899FF0011124E75626
:10098000FE4F90E080E070E05191DF0111979B01F4
:10099000082E02C0369527950A94E2F7217021951A
:1009A0002527242325272C9301968530910561F76F
:1009B00008958091980190916701981301C008955E
:1009C0008F5F8770FACF882341F080959091BA01AC
:1009D00089238093BA010C9432040895882339F056
:1009E0009091BA01982B9093BA010C943204089517
:1009F00020915D0130915E012817390771F09093C5
:100A00005E0180935D01E091CB01F091CC013097C4
:100A100021F00084F185E02D0994089520915B0177
:100A200030915C012817390771F090935C01809335
:100A30005B01E091CB01F091CC01309721F0068071
:100A4000F781E02D09940895E091CB01F091CC015C
:100A5000309721F00190F081E02D099480E0089515
:100A60000E9420049C019091D5018091D601982B81
:100A700021F03093D2012093D1019091D701809140
:100A8000D801982B21F03093CF012093CE01E09133
:100A9000CB01F091CC01309749F082E08093D301F3
:100AA0000480F581E02D83ED91E00994089590E0B4
:100AB00080E00E940E0590E080E00E94F804109211
:100AC000B9011092B8010E94320486E0E3EDF1E032
:100AD000DF011D928A95E9F71092D0011092CD01A5
:100AE000109260010C9430056093AA027093AB02DF
:100AF0008093AC029093AD020C9457050F931F9313
:100B00006091AA027091AB028091AC029091AD020B
:100B10008B019C010670112722273327063011050F
:100B20002105310529F468601F910F910C9474051B
:100B3000677FFACF0F931F9341E050E060E070E0D1
:100B400004C0440F551F661F771F8A95D2F7CB014B
:100B5000BA0160957095809590950091AA021091C8
:100B6000AB022091AC023091AD026023712382234D
:100B700093231F910F910C9474059091B701809568
:100B800089238093B701282F277071F4282F082E0E
:100B9000000C330B9217130639F0859585958595D2
:100BA0000E949A051092B70108950F931F9341E098
:100BB00050E060E070E004C0440F551F661F771FCF
:100BC0008A95D2F78091AA029091AB02A091AC02D3
:100BD000B091AD028A019B01082B192B2A2B3B2BCC
:100BE000C901B8011F910F910C9474056093BC0169
:100BF0007093BD018093BE019093BF010C94570583
:100C00004091D501803F59F48091D60187FF0DC0F6
:100C10001092D60141110BC01092D00108C0813F43
:100C200081F48091D60118169CF3442381F08091C1
:100C3000D7019091D801892B09F05AC01092CD01AB
:100C40000895823F49F447FFF0CF1092D50180917B
:100C5000D6018111ECCFE0CF833F19F41416ACF329
:100C6000E4CF9091D701893F29F41916F4F6109238
:100C7000D701DBCF8A3F19F497FFD7CFF8CF9091F8
:100C8000D8018B3F29F497FFD0CF1092D801CDCF58
:100C90008C3F19F41916CCF3C8CF9CE0980F95300F
:100CA00090F4845F990B21E030E0B90102C0660F37
:100CB000771F8A95E2F7CB0180959091D401892323
:100CC0008093D401B2CF8D3F31F4809160018E7F4B
:100CD00080936001AACF8E3F21F4809160018D7FC7
:100CE000F7CF8F3F09F0A1CF809160018B7FF0CFCC
:100CF0000895882309F459C0823871F40E942405AC
:100D000081FF53C089E30E946C040E94320489E38E
:100D10000E945F040C943204833859F40E94240525
:100D200080FF43C083E50E946C040E94320483E587
:100D3000EFCF843859F40E94240582FF36C087E43F
:100D40000E946C040E94320487E4E2CF9CEF980F6B
:100D5000913AF0F290E2980F983088F4877021E091
:100D600030E0A90102C0440F551F8A95E2F7CA017D
:100D700080959091BA0189238093BA01CBCF9BE5EE
:100D8000980F933020F490E080E00C940E0598E5E5
:100D9000980F973120F490E080E00C94F804803FA5
:100DA00020F00E9400060C943005089580916001A7
:100DB00080FD16C081FD16C082FD16C08091CD0158
:100DC0008823A1F0883280F428E0829FC00111249A
:100DD00068E270E00E94FC1B862F672B39F00895B3
:100DE00082E0089584E0089588E0089581E0089500
:100DF0008091600180FD14C081FD14C082FD16C089
:100E00008091D001882381F0843180F422E3829F95
:100E1000C001112464E170E00E94FC1B862F08953C
:100E20008CE0089589E1089585E0089582E30895AE
:100E3000803F31F40E94F80681958093D601089591
:100E4000813F19F40E94F806F8CF823F31F40E94E6
:100E5000F80681958093D5010895833F19F40E9487
:100E6000F806F8CF893F29F40E94D6068093D7016F
:100E700008958A3F21F40E94D6068195F7CF8B3FD3
:100E800031F40E94D60681958093D80108958C3F55
:100E900019F40E94D606F8CF9CE0980F953070F4B4
:100EA000845F990B21E030E001C0220F8A95EAF7B8
:100EB0008091D401822B8093D40108958D3F31F429
:100EC0008091600181608093600108958E3F21F4DC
:100ED000809160018260F7CF8F3FB9F78091600108
:100EE0008460F1CFF894E82FE295EF70F0E031A143
:100EF000282F2F7081E090E001C0880F2A95EAF733
:100F0000982F9095932391A392A1892B82A37894F3
:100F100008959091C90192FF06C0282F28712830AA
:100F2000F9F4877F846093FF06C0282F2871283149
:100F3000F1F4877E84612091CA0120FF06C0382F1A
:100F400038713830D9F4877F816021FF06C0282F9F
:100F500028712831D1F4877E816194FD877E0895C0
:100F6000282F24712430F9F68B7F8860DCCF282F5E
:100F70002471243101F78B7E8861DDCF382F3171E8
:100F8000313019F78E7F8860E0CF282F2171213111
:100F900021F78E7E8861E1CF8091EF01882321F1D6
:100FA0001092C00188E190E020E40FB6F894A89573
:100FB000809360000FBE2093600083B7817F8460C0
:100FC00083BF83B7816083BF7894889583B78E7F12
:100FD00083BF0FB6F894A8958091600088618093D4
:100FE0006000109260000FBE0895CF93DF93809150
:100FF000D502835087FD14C09091D302CCE0D0E09D
:10100000C91BD109C852DD4F9091D202903108F02E
:101010006BC0883009F453C0109295021092D5022B
:1010200080910B0184FF3EC080910A018F3FD1F176
:10103000C82F893008F0C8E0982F9C1B90930A01B4
:101040009091AE0228E892279093AE028823E9F0AF
:101050008091A5029091A6022091A40226FF06C1CC
:10106000FC012C2FAFEAB2E034913D933196215030
:10107000D9F79C012F5F3F4F8FEF8C0F820F932F7B
:10108000911D9093A6028093A5026C2F8FEA92E0A7
:101090000E943902CC5FCC3019F08FEF80930A01A7
:1010A000C0930B0184E199B19C7031F48150D9F760
:1010B0001092D6021092D102DF91CF9108958091C3
:1010C0009502893108F0A8CFE82FF0E0EB58FD4FEA
:1010D0009E01285F3F4F999191932C173D07D9F7B7
:1010E000885F809395029ACF9D3209F0A3C0883023
:1010F00009F094CF83EC8093AE028AE580930B01D4
:101100001092A4028881807609F447C0803229F5C4
:101110008981813099F48C819D81892BF1F487E953
:1011200092E09093A6028093A50288E09F8191119E
:1011300031C09E81981770F5892F2CC0823041F400
:1011400086E992E09093A6028093A50281E0EECF1B
:101150008A3029F48B818093960280E0E7CF893032
:10116000E1F78A819B818115924069F48C819D8190
:10117000892B49F481E08093A3028E819F81909313
:10118000A2028093A102888187FF52C08E8190E8DD
:101190009093A40280930A0141CF2A811092B70252
:1011A000998191110AC01092B80227EB32E082E0D7
:1011B0003093A6022093A502B9CF953029F420934D
:1011C000D60227EB32E0F4CF9630C1F49B81913008
:1011D00049F4CE010E947E0390E49093A4028F3FD5
:1011E00091F2A4CF9230A9F3933099F3913289F31D
:1011F000923279F390E49093A40298CF983089F0DA
:10120000993019F420939F02DCCF9A3071F09B3013
:10121000C1F69BE49093BA029093EF029093C602BA
:10122000D0CF2FE932E081E0C3CF27EB32E0FBCF14
:101230008FEFADCF8091A40287FFF0CE8091A10205
:101240009091A202892B71F08091A302813051F418
:1012500088818093A0021092A2021092A1021092A3
:101260000A01DCCE8EE180930B01D8CEDC012C2F5D
:10127000EFEAF2E03D9131932150E1F7FACE1F936E
:10128000CF93DF93E82F792F162FEA01888184FF0F
:101290001CC0298188E828272983CE010296DC0119
:1012A0002E2F372F512F5E0FF90121912D939F0182
:1012B000452F4E1B1416C4F3612F0E9439021C5F88
:1012C0001883DF91CF911F9108958AE58883E5CF38
:1012D0002091EE0224FF05C04EEE52E066E00C9431
:1012E0003F090895CF93DF9300D00F92CDB7DEB7BB
:1012F00090917402981307C020917202309173028A
:1013000026173707A1F080937402709373026093DD
:10131000720289837B836A838091EE0284FF07C017
:101320004EEE52E063E0CE0101960E943F090F901D
:101330000F900F90DF91CF910895BC0184E00C9441
:101340007209BC0183E00C947209CF93DF93CAE069
:10135000D0E08091B90284FF1CC08091700290910E
:101360007102981799F028E0829FC001112449EB7F
:1013700052E068E080519E4F0E943F0980917002C8
:1013800090E001968F70992780937002DF91CF9142
:1013900008950E94F5078FE99FE00197F1F700C0DB
:1013A00000002197B1F6F2CFCF93DF93EC01A0912B
:1013B0007102B0E0CD0101968F70992720917002E3
:1013C000281779F093E0AA0FBB1F9A95E1F7A05177
:1013D000BE4F98E0FE0101900D929A95E1F780933F
:1013E00071020E94F5070E94A50988E0FE01A7E9A5
:1013F000B2E001900D928A95E1F7DF91CF910895C7
:10140000CF93C82F882309F490C08238C1F40E947A
:10141000240581FD8AC089E30E946C040E94320485
:101420002FEF81EE94E0215080409040E1F700C022
:10143000000089E30E945F04CF910C94320483384A
:10144000A1F40E94240580FD70C083E50E946C0415
:101450000E9432042FEF81EE94E0215080409040B2
:10146000E1F700C0000083E5E5CF8438A1F40E94D5
:10147000240582FD5AC087E40E946C040E94320455
:101480002FEF81EE94E0215080409040E1F700C0C2
:10149000000087E4CFCF8CEF8C0F813A68F4E2E54F
:1014A000F1E08191C817D9F121E0E835F207C9F7D9
:1014B0008C2F0E946C04C0CF80E28C0F883068F4BF
:1014C000C77021E030E001C0220FCA95EAF7809191
:1014D000BA01822B8093BA01AFCFEBE5EC0FE3307A
:1014E00040F4F0E0E45FFE4F808190E0CF910C94F7
:1014F0000E05E8E5EC0FE73150F4F0E0EE0FFF1FCA
:10150000E15FFE4F80819181CF910C94F804C03F40
:1015100060F08C2F0E941807CF910C9430058C2F0F
:101520000E945F040E943204C3CFCF9108951F939D
:10153000CF93DF93182FD0E0C0E0893311F4C0E5DA
:10154000D0E0812F0E94000A209731F4812FDF9193
:10155000CF911F910C9479068FE99FE00197F1F7E5
:1015600000C000002197F0CF0F931F93CF93DF931C
:10157000C62FD42F022FFC0182818823A1F0609313
:10158000A9020E9420049093A8028093A702C7702A
:1015900081E001C0880FCA95EAF7DF91CF911F91D2
:1015A0000F910C94EE048091A902681335C08091CC
:1015B000A7029091A8020E941104883C910560F551
:1015C00010E21D0FCD17B9F080E28C0F883040F487
:1015D000C77081E001C0880FCA95EAF70E94E30452
:1015E000183048F481E09D2F977001C0880F9A95BC
:1015F000EAF70E94EE04802F0E94970A183098F4B0
:10160000D77081E001C0880FDA95EAF7DF91CF91BA
:101610001F910F910C94E304C77081E001C0880F03
:10162000CA95EAF7F3CFDF91CF911F910F910895FB
:10163000AF92BF92CF92DF92EF92FF920F931F93E0
:10164000CF93DF930DE311E0C1ECD1E0C12CD12C9D
:10165000EE24E394F12CF80181918F01F894E82FA6
:10166000E295EF70F0E021A18F70A70102C0440F56
:10167000551F8A95E2F7CA01922F982B91A392A148
:101680008095892382A3789400C0E1E4F1E030E002
:1016900020E0B12CA12C4191A42FA295AF70B0E015
:1016A00090968C9190E04F7002C0959587954A95E1
:1016B000E2F780FD5EC0C701022E02C0880F991FAD
:1016C0000A94E2F7A82AB92A2F5F3F4F2C30310540
:1016D00011F7F801319780810E94720753E0C51617
:1016E00019F080EA8A95F1F788819981A816B906E0
:1016F00009F442C0B982A88281E0D82AC394229614
:10170000E4E0CE12A8CFDD20C9F181E080935A0138
:101710000E942004909359018093580180915801B0
:10172000909159010E941104069760F18091C101C6
:101730009091C2019093E4018093E3018091C301F1
:101740009091C4019093E6018093E5018091C501D9
:101750009091C6019093E8018093E7018091C701C1
:101760009091C8019093EA018093E90110925A0187
:1017700009C090E080E0A6CF80E0BFCF80915A0101
:101780008111CCCF8D2DDF91CF911F910F91FF90C3
:10179000EF90DF90CF90BF90AF900895CF9384E00B
:1017A00090E00E94311CC82F81E290E00E94311C21
:1017B000982F8C2FCF9108950F931F93CF93DF9382
:1017C000C42FD0E0CC0FDD1F28E1629FC00DD11DDA
:1017D000112430E6839FC00DD11D1124CE018696C1
:1017E0000E94311C082F10E0102F0027CE01879691
:1017F0000E94311C9801282BC901DF91CF911F91C4
:101800000F910895462F843038F4743028F46C30EA
:1018100018F4672F0C94DC0B90E080E00895CF93D0
:10182000DF930E94020CEC0182389105A9F1D8F5F2
:101830008133910509F496C048F58932910509F480
:101840008AC08A9709F495C0C11521E5D20708F02E
:10185000BCC0C11530E5D30708F014C1C83ED1059E
:1018600008F09CC0C03ED10560F5C83AD10508F02B
:1018700087C0C53AD10508F0FDC0C130D10509F1D6
:101880002097F9F0C430D105E0F440C085339105CC
:1018900009F45AC0C997C1F68091C901837089F0D3
:1018A000C0EED0E00EC0833E910599F170F4803E09
:1018B000910501F1823E910539F68091C90182FDC1
:1018C00021C0CE01DF91CF910895863E910561F14F
:1018D000873E910571F1843E910509F0B5CF809165
:1018E000CA0181FFEECF8091C901C7EED0E084FD2F
:1018F0000DC0E7CF8091C90180FD12C19091CA014E
:1019000090FFDFCFC3EED0E084FFDBCFD0E0C0E0BC
:10191000D8CF8091C90182FD06C19091CA0190FD86
:10192000BFCF84FFCECFF2CF8091C90183FDDDCF41
:10193000C8CF8091C90183FDF9C09091CA0191FF80
:10194000F0CFC4EED0E0BDCF8091C90185FFB9CF03
:10195000C9E2D0E0B6CF8091C90185FFB2CFC5E31F
:10196000D0E0AFCF8091C90186FFABCFCAE2D0E013
:10197000A8CF8091C90186FFA4CFC1E3D0E0A1CF59
:10198000CF3BD10518F6C85AD0E0CC0FDD1FC15FA0
:10199000DE4F0990D881C02DD46493CFC11540E2A9
:1019A000D40758F4C11581E0D80708F08ACFC03FAA
:1019B000D10508F4ABCFD06584CFC11590E4D90729
:1019C00008F4A4CFDF70D06A7CCFC11525E5D2071B
:1019D00000F5C11534E5D30708F08AC0C11543E509
:1019E000D40708F071C0C11582E5D80708F467C0B4
:1019F000CE018370992721E030E002C0220F331F0F
:101A00008A95E2F7C695C69580E2C89FE001112449
:101A100052C0C11599E5D907A8F4C11528E5D20728
:101A200008F06BC0C11536E5D30708F06FCF8C2FD7
:101A30000E948907C82FD0E0DC2FCC27CC27DF718C
:101A4000D0623FCFC1154AE5D40708F45BC0CE0190
:101A500090568115904208F059CF8D2F8F710E94BA
:101A6000890790E0982F882788279F719C012C2B4D
:101A7000E901E6CFC55AD0E0C45FDE4FC881D0E0AF
:101A8000D0641FCFCE01E4E096958795EA95E1F703
:101A900083702C2F26952695237040E2249F900179
:101AA0001124382B8C2F8370C1E0D0E002C0CC0F02
:101AB000DD1F8A95E2F7C22BD32BDC6802CFDC2F27
:101AC000CC27C16FD06AFDCECE018370992721E06B
:101AD00030E002C0220F331F8A95E2F7C695C69503
:101AE00090E2C99FE0011124C22BD32BDA68E9CE22
:101AF000DC2FCC27C46FD06AE4CEDC2FCC27C06F9C
:101B0000D06ADFCE8C2F8F700E94890734E0D69583
:101B1000C7953A95E1F7CF709C2FEC01D069D1CEF3
:101B2000C9E3D0E0CECEC2EED0E0CBCEC6EED0E060
:101B3000C8CEBF92CF92DF92EF92FF920F931F9386
:101B4000CF93DF938C01C090AA02D090AB02E090BB
:101B5000AC02F090AD028091BC019091BD01A091CA
:101B6000BE01B091BF01C82AD92AEA2AFB2ACFE1D7
:101B7000D0E0BC2ED701C6010C2E04C0B695A795A7
:101B8000979587950A94D2F780FD0EC0219788F724
:101B9000B12C8B2DDF91CF911F910F91FF90EF9082
:101BA000DF90CF90BF900895B8018C2F0E940F0C4A
:101BB000019761F3EECFCF93DF93EC010E94990D73
:101BC000BE01DF91CF910C940F0C0E94DB0D292FE9
:101BD0002F7092959F7092509E3078F4E92FF0E02C
:101BE000EB58F34E0C94101C803F19F020F4883E03
:101BF00020F481E00895843FE1F380E00895883E79
:101C0000C0F3813FD1F7F5CF822F869586958695D3
:101C100008956F927F928F929F92AF92BF92CF92D0
:101C2000DF92EF92FF920F931F93CF93DF9388E69B
:101C3000C82E80E0D82E9EE9E92EF12CE701C0568F
:101C4000D10936011BC0F50185909490692DC8011A
:101C50000E943F1C682DC80101960E943F1C82E033
:101C6000A80EB11C0E5F1F4FC017D10761F788E1A6
:101C7000680E711C6896CE15DF0529F08E0108519B
:101C800011095301E0CF7E0180E6E80EF11C80E6E9
:101C9000C80ED11C8EE1E81682E0F80679F6DF91D5
:101CA000CF911F910F91FF90EF90DF90CF90BF9059
:101CB000AF909F908F907F906F900895CF93DF9318
:101CC000C6EAD1E060E0CE010E943F1C2196C1151A
:101CD00084E0D807B9F7DF91CF9108956BEE7EEFDE
:101CE00090E080E00E945D1C60E082E090E00E9455
:101CF0003F1C60E083E090E00E943F1C1092BC011A
:101D00001092BD011092BE011092BF0160E084E00C
:101D100090E00E943F1C60E081E290E00E943F1C46
:101D200060E085E090E00E943F1C60E086E090E08B
:101D30000E943F1C6FEF87E090E00E943F1C40E054
:101D400050E0BA0188E090E00E94511C60E08DE014
:101D500090E00E943F1C40E050E0BA0188E190E032
:101D60000E94511C60E087E190E00E943F1C40E02F
:101D700050E0BA018CE190E00E94511C60E080E2EA
:101D800090E00E943F1C40E050E0BA0188E190E002
:101D90000E94511C40E050E0BA018FE090E00E94A8
:101DA000511C40E050E0BA0183E190E00C94511CDA
:101DB0001092BA01E2E5F1E086E0DF011D928A951A
:101DC000E9F70C9457053F924F925F926F927F9282
:101DD0008F929F92AF92BF92CF92DF92EF92FF923B
:101DE0000F931F93CF93DF9300D000D00F92CDB706
:101DF000DEB78C01FC0183819481892B31F08081D5
:101E0000918189238F3F09F07AC50F900F900F9031
:101E10000F900F90DF91CF911F910F91FF90EF9056
:101E2000DF90CF90BF90AF909F908F907F906F90FA
:101E30005F904F903F9008950E94990DF82E682F63
:101E400089819A810E94AD0469817A818F2D0E94D7
:101E5000020C7C01F8018281882309F443C59701B3
:101E600022513F452031310508F00FC58FEF93E037
:101E70000E94311CFEEEEF0E56EA852E99249394B3
:101E8000882381F18091B701877009F4BECFF801F2
:101E90008281882309F4B9CF82E00F900F900F90D0
:101EA0000F900F90DF91CF911F910F91FF90EF90C6
:101EB000DF90CF90BF90AF909F908F907F906F906A
:101EC0005F904F903F900C94BD05811424E09206E2
:101ED000C9F2C4010E94311C811101C0EA943FEF94
:101EE000831A930AE110F1CF1C821B82442443948D
:101EF0004AE0342E74018FEFE81AF80AC4010E94F8
:101F0000311C89831A82882309F4BCCF9FEF980F74
:101F1000933000F58A83498292E0890E911CC701B3
:101F20000E94311C8B83882309F4ACCFFE013196CB
:101F30007F01F70120812223E9F2213009F049C015
:101F400091818281913041F4F2E0EF0EF11C0E9408
:101F5000970A09C04701EACF923049F422E0E20E25
:101F6000F11C0E94000A3FEFE31AF30AE2CF93301C
:101F700031F432E0E30EF11C0E947906F4CF943084
:101F800021F08FEFE81AF80AEECF92E0E90EF11C8B
:101F900030E020E0B7016F5F7F4FF7014181805350
:101FA000990B8A30910550F021503109E0F28FE908
:101FB0009FE00197F1F700C00000F6CF329EF001DC
:101FC000339EF00D11249C012E0F3F1F842F7B01A7
:101FD000E1CFE22FF0E0E854FE4F5490822F869537
:101FE0008695869590E0FC01E855FE4F6490277039
:101FF000712C022E02C0759467940A94E2F7E1E016
:102000006E227724FC01E856FE4FA490B12C022EDC
:1020100002C0B594A7940A94E2F7F1E0AF22BB2482
:10202000FC01E857FE4FC490D12C02C0D594C79450
:102030002A95E2F721E0C222DD246114710419F02F
:1020400081EE0E94000AA114B10419F086EE0E94EC
:10205000000A852D0E94970AAB2819F086EE0E948F
:102060007906672819F081EE0E947906CD2809F4D7
:102070007ACF8CE26CCF81E00E94D5050E947E056C
:1020800001CF81E00E949A05F9CF82E0F5CF95EF6C
:10209000E9169CE5F90609F46AC008F464C027E271
:1020A00045EE66EEF6EFEF16FCE5FF0609F416C402
:1020B000882309F435C41092A90222E0E2162CE527
:1020C000F20608F44DC136E1E3163CE5F30638F0BC
:1020D00097012A5F3C452930310508F041C10E9433
:1020E000CE0B9093CA018093C90180E1E8168CE57C
:1020F000F80609F404C108F083C0E8E0EE16ECE548
:10210000FE0609F4EEC008F04FC024E0E2162CE50C
:10211000F20609F4DEC090F582E0E8168CE5F806D8
:1021200009F4D1C08091C901826093E0E9169CE571
:10213000F90609F4CBC06091C901F090CA0184E0AE
:1021400090E00E943F1C6F2D81E290E00E943F1CB6
:102150000E94D80E97CE27E245EE65EEBFC326E279
:1021600041EE60EEBBC327E245EE64EEB7C326E264
:1021700041EE62EEB3C328E241E0EFCF8091C901A6
:102180008061E6E0EE16ECE5FE0609F49FC0809162
:10219000C9018860F7E0EF16FCE5FF0608F496C079
:1021A0008091C901806292C08091C9018D7F2CE02D
:1021B000E2162CE5F20609F489C060F48AE0E8161C
:1021C0008CE5F80609F497C008F48FC08091C90126
:1021D0008E7F7CC08091C901877FEEE0EE16ECE532
:1021E000FE0609F473C08091C9018B7FFFE0EF16F2
:1021F000FCE5FF0608F46AC08091C9018F7E66C0C5
:102200002BEFE2162CE5F20609F467C068F583E1CE
:10221000E8168CE5F80609F47AC090F4E1E1EE16D0
:10222000ECE5FE0609F46FC0F2E1EF16FCE5FF06EF
:1022300009F081CF0E94D80E8091C9018F7746C0E6
:1022400025E1E2162CE5F20609F469C008F47DC028
:102250008AEFE8168CE5F80609F06DCF8091CA0187
:1022600081608093CA0167CF9FEFE9169CE5F9066C
:1022700009F451C0A0F48091CA018D7FFDEFEF16E3
:10228000FCE5FF0671F38091CA018E7F2EEFE21606
:102290002CE5F20630F38091CA018360E2CF31E091
:1022A000E3163DE5F30609F459C008F444C060E0C4
:1022B00092E0E9169DE5F90609F03DCF8EE090E049
:1022C0000E943F1C38CF8091C90181608093C90171
:1022D00032CF8091C9018460F9CF8091CA018260B8
:1022E000C0CF8091C9018064F1CF0E94D80E809147
:1022F000C9018068EBCF8091C9018C60E7CF8091E4
:10230000C9018F7DE3CF8091C9018F7BDFCF8091A1
:10231000C901837FDBCF8091CA018C7FA2CF8091DE
:10232000C90182FB992790F921E0922790FB82F95D
:1023300090FB83F9CBCF8091CA01982F9095917033
:102340008E7F892B90FB81F98CCF0E94D80E9091C3
:10235000C901892F97FB87F98058B8CF61E0AECFCC
:10236000E6E1EE16ECE5FE0609F0E7C28091BA015F
:102370008A7A91E009F490E090935F01811106C0A0
:1023800089E20E946C040E9432047CCD85E3F9CF7F
:1023900085E3D0C20E94D80EFFEF24E33CE0F15069
:1023A00020403040E1F700C000000E94FC036ACDED
:1023B0000E946E0E67CDC7010E948504D82ED6C23A
:1023C0002F2D2F70A22E8F2D807F19F0A29490EFC9
:1023D000A922DD20C9F0AA2069F080E28E0D8830A4
:1023E00010F081100BC08091BA01A82AA092BA0106
:1023F0000E9432048E2D0E94000A19C08091B901FA
:10240000A82AA092B901F4CF8E2D0E947906AA20A5
:1024100071F0A09480E28E0D883010F081103DC0E4
:102420008091BA01A822A092BA010E943204232D01
:102430002850330B2430310510F40E942405CC20A1
:1024400009F4E3CC8091B70180FDDFCCF801128262
:102450008595859585950E94D505C8010E94E30E56
:102460008091B7018595859585950F900F900F9078
:102470000F900F90DF91CF911F910F91FF90EF90F0
:10248000DF90CF90BF90AF909F908F907F906F9094
:102490005F904F903F900C949A058091B901A822CB
:1024A000A092B901C2CF3F2D3F70932E8F2D807F18
:1024B000803219F0929480EF9822882071F081E0A8
:1024C000881661F1DD20B9F1AA2071F1F80185814A
:1024D00080FF90CF8F70858327C0DD2091F0909191
:1024E000BB01892D892BA11003C00E94EE049FCF50
:1024F000E1E0AE12FACF981709F499CF8093BB01AF
:1025000096CFA11006C00E942C04892D0E94E304DE
:102510008ECFF1E0AF1609F48ACFF5CFDD2031F090
:1025200025E02A1508F483CF892DDFCF34E03A1552
:1025300008F47DCFEACFAA2041F3F9E38F1209C056
:102540002FEF37EE83E0215030408040E1F700C0AC
:1025500000008E2D0E9479066ACF8F2D8695869574
:10256000837061F0813009F062CFC7019370D110A0
:1025700002C090E080E00E94F80459CFC701937038
:10258000D11002C090E080E00E940E0550CF8E2D49
:10259000DD2029F00E9418070E94300548CF0E94D4
:1025A0000006FACF8F2D837009F066C0D1103FCF9F
:1025B0008E2D829586958770880F880F6E2D6F708F
:1025C000462E512C712C612C082E04C0440C551C35
:1025D000661C771C0A94D2F740E050E0BA01E4FE92
:1025E0000FC04FE050E060E070E004C0440F551FA2
:1025F000661F771F8A95D2F7409550956095709524
:102600008F2D869586958370823019F1D8F480904D
:10261000BC019090BD01A090BE01B090BF0181307F
:1026200069F04429552966297729CB01BA01682127
:1026300079218A219B210E94F605F9CE4828592844
:102640006A287B28CB01BA01642975298629972934
:10265000F2CF44295529662977294090BC01509032
:10266000BD016090BE017090BF01CB01BA0164252D
:10267000752586259725DFCF8695DD2011F08F2DD6
:102680008170882309F4D3CE8E2D8295869587702C
:10269000880F880F6E2D6F70462E512C712C612C77
:1026A000082E04C0440C551C661C771C0A94D2F7F3
:1026B00040E050E0BA01E4FE0FC04FE050E060E0BF
:1026C00070E004C0440F551F661F771F8A95D2F72C
:1026D00040955095609570958F2D86958695837061
:1026E000823019F1D8F48090AA029090AB02A090A9
:1026F000AC02B090AD02813069F0442955296629B9
:102700007729CB01BA01682179218A219B210E9476
:1027100074058DCE482859286A287B28CB01BA0138
:102720006429752986299729F2CF442955296629D4
:1027300077294090AA025090AB026090AC02709052
:10274000AD02CB01BA016425752586259725DFCF1B
:102750009F2D9F70F92EDD2029F0892F0E94D5052D
:102760008E2DC3CE8E2D0E94E3048F2D0E949A05DC
:102770005ECE8E2DE2EF8E1609F453C0E81578F088
:10278000F0EF8F1629F121EF821609F442C0DD2007
:1027900009F46BC0A1102ECE8F2D8F713FC033EF87
:1027A000831609F443C094EF8912F1CFDD2009F4B8
:1027B00051C02F2D2F71F22E822F0E94D50538E0A7
:1027C000F39EC001112483608093B7018F2D26C032
:1027D000DD20D1F0E4E0EA1508F429CE2F2D2F7189
:1027E00061E070E080E090E004C0660F771F881F12
:1027F000991F2A95D2F74090AA025090AB026090A0
:10280000AC027090AD029FCFF5E0FA1508F40FCE40
:10281000E5CF8F2D8F71DD2009F4A8CF0E94D5055B
:1028200006CE8F2D8F71DD20C9F3A0CF60E070E060
:10283000CB01DD2009F46BCF2F2D2F7161E070E00B
:1028400080E090E004C0660F771F881F991F2A95CB
:10285000D2F75DCF81E00E94BD0581E08A1508F0C6
:10286000E6CD82E00E94BD05E2CDAA2059F0893371
:1028700009F06FCE9FEFE7EEF3E09150E040F040BB
:10288000E1F765CE8F2D8F7171CFF0E1EF16FFE587
:10289000FF0609F4F0CB21E1E2162FE5F20609F478
:1028A000F4CB93EFE9169CE5F90609F458CC08F04F
:1028B000EECBF8EDEF16FCE5FF0609F44CCC29ED64
:1028C000E2162CE5F20609F456CC37EDE3163CE5AA
:1028D000F30609F0EDCB26E241EE61EEC8010E945D
:1028E000B40AD0CA30E1E3163FE5F30609F4C9CBD8
:1028F00091E1E9169FE5F906A1F682E0C3CB85E0F8
:10290000DE01119601900D928A95E1F7F80122817E
:1029100089819A81211190CA0E948504F82E94CA57
:10292000F6E1EF16FCE5FF0699F480915F01811155
:102930002FCD89E20E945F0426CDE1142CE5F2063A
:1029400009F428CD3EEDE3163CE5F30609F430CD5D
:10295000F801E080F180882309F42DCDC7010E94A1
:10296000990DD82E682FC7010E94AD04B7018D2D97
:102970000E940F0C7C01882EF801D280A580A294C1
:102980003FE0A3228091B7018770A1F0CD2CDD201C
:1029900091F08F2D807F803421F080E28E0D883081
:1029A00048F082E00E94BD058091B7018770CC2479
:1029B000C3948111C12C3F2C32942FE03222FBE0D2
:1029C000F31508F434CDE32DF0E0ED57F34E0C94FD
:1029D000101C1F93CF93DF9380916601807FA9F431
:1029E00080916301882389F080919801D0916701DB
:1029F0006091610170916201A0916401B0916501E3
:102A0000C62FC72316E0D81304C0DF91CF911F91C2
:102A1000089590E0109711F0CF3F19F40196877058
:102A2000F2CF189F9001199F300D1124F901E85938
:102A3000FE4F41814713F2CF40814613EFCF4281D1
:102A40004111ECCF438154814A1B5B0B483C51053B
:102A500028F7809166018F70806180936601F9018B
:102A6000E359FE4F80818F708061808381E691E021
:102A70000E94E30EDF91CF911F910C94D904AF9285
:102A8000BF92CF92DF92EF92FF920F931F93CF935B
:102A9000DF93CDB7DEB761970FB6F894DEBF0FBEF8
:102AA000CDBF8C0185E0F801DE011D9601900D92ED
:102AB0008A95E1F7F80180819181E28021E6A22EDA
:102AC00021E0B22E6091640170916501611571057C
:102AD00009F43EC13091610140916201232F24230A
:102AE0002F3F09F435C1C380D480F0906301F60113
:102AF000E61BF70BFF2009F4FBC020916601522F63
:102B0000507FE83CF10508F0BBC0511178C0FE2CA5
:102B1000491321C038131FC0E1101DC02F70206160
:102B200020936601C5010E94E30E80916601F801C1
:102B300085838F2D61960FB6F894DEBF0FBECDBF93
:102B4000DF91CF911F910F91FF90EF90DF90CF9089
:102B5000BF90AF900895CD2829F0282F29232F3F2B
:102B600009F014C120E0F22FF170DF2E20FF3DC0EC
:102B7000209198014091670156E0241315C08D877C
:102B80009E878D859E850E94DB0D292F22952F70B3
:102B90002230F8F0243020F59F70F9F0F80195818B
:102BA000907FD9F4D12C1FC030E0529FF001539F89
:102BB000F00D1124E859FE4F6181961306C0608123
:102BC000861303C06281E61210C02F5F3F4F27704B
:102BD000D4CF9F7011F0882329F3805E883010F3E2
:102BE000C8010E94E30EFD2CA4CFEE2009F4A1CF72
:102BF00080916601816080936601F12C9ACF491320
:102C000012C0381310C0E1100EC0F8012583C801AE
:102C10000E94E30E86E0F801A1E6B1E001900D927A
:102C20008A95E1F786CF8D879E878D859E850E9448
:102C3000E50D882309F1EE20F9F0809166018032DC
:102C400070F0209161013091620138872F831986DD
:102C5000DB86CA868C87CE0107960E94E30E86E04B
:102C6000F801A1E6B1E001900D928A95E1F70E948A
:102C7000E914FF24F3945DCFC8010E94E30EF9CF5D
:102C800051110AC081E691E00E94E30E86E0F50151
:102C900011928A95E9F7B1CF49130FC038130DC0CF
:102CA000E1100BC0F8012583C8010E94E30E86E005
:102CB000F50111928A95E9F73CCF8D879E878D8526
:102CC0009E850E94E50D8823B9F2EE20A9F280913D
:102CD0006601803220F220916101309162013A83D5
:102CE00029831B82DD82CC828E83CE010196B5CFF3
:102CF000E83CF105E0F6FE2CEE2009F4BDCF4913C7
:102D000016C0381314C08091660180FD83CF982FC0
:102D1000907F09F47FCFF8018583903F09F477CF46
:102D2000982F907F905F8F70892B858370CF8D87D0
:102D30009E878D859E850E94E50D811190CF8091A3
:102D40006601816080936601C8010E94E30EF1CEA6
:102D5000EE2009F491CF8D879E878D859E850E94F8
:102D6000E50DF82E882309F487CF86E0F801A1E667
:102D7000B1E001900D928A95E1F780916101909107
:102D800062010E94DB0D0E94E914D3CE21E02E25C2
:102D9000EACE1F93CF93DF93CDB7DEB767970FB619
:102DA000F894DEBF0FBECDBF342F4B8B252F5C8B2D
:102DB0006D8B7E8B8F8B8E899F8961111092B901EB
:102DC0001A8A198A3D872E876F87998B888B86E0B0
:102DD000FE013D96DE01179601900D928A95E1F76E
:102DE000CE0107960E943F15882389F016E0809156
:102DF000980190916701891349C067960FB6F894BE
:102E0000DEBF0FBECDBFDF91CF911F91089586E049
:102E1000FE013796DE01119601900D928A95E1F739
:102E20008A859B85892B11F38F81988589238F3F14
:102E3000E9F22091670130E0C90101968770992776
:102E4000409198014817190671F40E94D80E10920B
:102E500067011092980186E0E1E6F1E0DF011D9242
:102E60008A95E9F7C3CF96E0929FD001939FB00D6A
:102E70001124A859BE4FFE01319601900D929A95EA
:102E8000E1F7809367010E94D904B0CF819FC00110
:102E9000112488599E4F0E943F15882309F4ADCF15
:102EA0008091980190E0019687709927809398010E
:102EB0009ECFCDB7DEB760970FB6F894DEBF0FBEDA
:102EC000CDBF0E9420044C0180E890E00FB6F8943A
:102ED00080936100909361000FBE8AEF93E090931E
:102EE0004F0180934E018091690088608093690052
:102EF000E99A8BE48093BA028093EF028093C60232
:102F00008AE58093B9028093EE028093C502539ABA
:102F100080E0815009F0EBC05398789482E084BD42
:102F200093E095BD9AEF97BD80936E0081E30E9478
:102F3000720784E30E94720783E30E94720782E3B0
:102F40000E94720701E411E0ADE4EA2EA1E0FA2E3E
:102F5000F80181918F010E947207E016F106C1F716
:102F60001092C2011092C1011092E4011092E3018B
:102F70001092C4011092C3011092E6011092E50173
:102F80001092C6011092C5011092E8011092E7015B
:102F90001092C8011092C7011092EA011092E90143
:102FA0000E94180B8FE39CE90197F1F700C0000025
:102FB0000E94180B8091E30180FF17C06FEF82E23F
:102FC00090E00E943F1C6FEF83E290E00E943F1C64
:102FD0006FEF84E290E00E943F1C6FEF7FEF90E084
:102FE00080E00E945D1C0E94FC0390E080E00E9453
:102FF000391C8B3E9E4F11F00E946E0E82E290E0D3
:103000000E94311C813209F07CC383E290E00E946F
:10301000311C813109F075C384E290E00E94311CBB
:10302000863009F06EC390E080E00E94391C8B3E30
:103030009E4F11F00E946E0E82E090E00E94311CC3
:103040008093DA010E94CE0B9093CA018093C9014C
:1030500083E090E00E94311C682F70E090E080E0F7
:103060000E94F60580E091E09093CC018093CB0123
:103070002FEF30E742E0215030404040E1F700C000
:103080000000FF24F394EE24EA945AE5252E60E133
:10309000362E79E0672EEBEE4E2EE1E05E2EFCE060
:1030A0007F2E8091D4021091EF01882341F110927C
:1030B000D4020E9420044C01112331F01092EF0140
:1030C0000E94D80E0E9424058091EF01882319F1F7
:1030D0000E94CC070E94180BE3EEF1E081919191E0
:1030E000892B09F0F5C24E165F06C1F7DACFA89515
:1030F000EFE9FFE03197F1F700C000000ACF1111AE
:10310000E3CFC4010E9411040697F0F2F092EF01A0
:103110000E94CC07D9CF0E94F50780919F02882397
:1031200009F421C18091B90284FF1DC10E94180BCE
:10313000882359F08FB7F8944091EB015091EC013E
:103140006091ED017091EE018FBFE3EEF1E0ABED28
:10315000B1E010E000E0602F819191912D913D91BF
:103160002817390709F422C12827392770E0CC2411
:10317000C394D12CA9014C215D21452B09F410C128
:103180007F8368879C012C213D2191E0232B09F44A
:1031900090E099870E9420048160782F9B878A871E
:1031A0004F81588569858B850E94C916000F111FB4
:1031B000F801E552FE4F80819181C826D926D1823F
:1031C000C08286E0E3EDF1E0DE01119601900D9200
:1031D0008A95E1F7D090D501C090D6011091D70122
:1031E0000091D8011092D5011092D6011092D7010A
:1031F0001092D8018D2D8C2909F448C08091D101FD
:103200009091D2010E9411049C019091D0019923C8
:1032100009F4A2C223333105C8F19F3F19F09F5F23
:103220009093D001DD2059F00E94F8069FEF1D1405
:103230000CF491E0899F802D11248093D501CC203E
:1032400059F00E94F8069FEF1C140CF491E0899F3E
:10325000802D11248093D6013091D5013323B1F014
:103260002091D601222391F045EB3403C0011124B3
:10327000992309F4B1C09093D50145EB2403900143
:103280001124332309F4ABC03093D601812F802B56
:1032900009F448C08091CE019091CF010E941104A1
:1032A0009C019091CD01992309F451C22536310535
:1032B000C8F19F3F19F09F5F9093CD01112359F002
:1032C0000E94D6069FEF11160CF491E0899F802D85
:1032D00011248093D701002359F00E94D6069FEF56
:1032E00010160CF491E0899F802D11248093D80151
:1032F0003091D7013323B1F02091D801222391F0EE
:1033000045EB3403C0011124992309F46BC0909359
:10331000D70145EB240390011124332309F465C040
:103320003093D8018091D5019091D601892B90914D
:10333000D701892B9091D801892B11F00E9430057B
:1033400086E0FE013196A3EDB1E001900D928A95E1
:10335000E1F70E9424059091D901891721F00E947C
:1033600024058093D9010E94A5090E94F507809148
:103370009F02882309F495CE8091EE0284FF91CEBE
:1033800080919502803209F08CCEE0917502E15077
:10339000E33108F094C0F0E0E157F34E0C94101CB8
:1033A0007F5FCC0CDD1C7C3009F0E4CE0F5F1F4F3B
:1033B0000430110509F0CFCEEC86ED861E860E9402
:1033C00020048160782F988B8F874C855D856E8572
:1033D00088890E94C916F5CEF092D5014ECFF092A1
:1033E000D60154CFF092D70194CFF092D8019ACF62
:1033F000109276026092770205E712E048C1809150
:103400007602823009F496C18330C9F0813009F028
:1034100056C02FB7F8946091EB017091EC01809148
:10342000ED019091EE012FBF0E94161C6093770270
:10343000709378028093790290937A02DDCF809125
:10344000E3019091E40198278927982790937802C7
:10345000809377028091E5019091E6019827892772
:10346000982790937A02809379028091E701909156
:10347000E80198278927982790937C0280937B0204
:103480008091E9019091EA019827892798279093E4
:103490007E0280937D02B0CF80917602823079F4F3
:1034A00060917702709178028091790290917A020E
:1034B0000E94161C85E290E00E943F1C9DCFE09286
:1034C00075029ACF409178026091770280917602DE
:1034D0000E94DC0B98278927982790937A02809383
:1034E00079028ACF0091790210917A021027012780
:1034F000102780917602C090770298E1C99E600102
:103500001124E0E68E9FC00CD11C1124809178021A
:1035100090E0880F991FC80ED91E612FC6018696AC
:103520000E943F1C602FC6018796C6CF0E94090EDD
:1035300063CF3092760260CFF2E0F0937602209271
:1035400077025ACF00917602109177021027012757
:10355000102735E7C32E32E0D32EA0907802B12C8D
:1035600095012B583D4F5901C8018A559E4FAC1407
:10357000BD0409F441CF0A3532E0130750F40E942C
:10358000311CF60184830F5F1F4FFFEFCF1ADF0A54
:10359000EBCFF6011482F7CF0091760210917702FB
:1035A00010270127102725E7A22E22E0B22EC09077
:1035B0007802C00ED12ED11CC8018A559E4FC0166C
:1035C000D10609F419CF0A3522E0120720F4F501DB
:1035D00064810E943F1CFFEFAF1ABF0A0F5F1F4FAD
:1035E000EBCF0E945E0E08CF24E02093760204CF3A
:1035F000009176021091770210270127102795E796
:10360000A92E92E0B92EC0907802D12CC6018B5819
:103610009D4F6C01C8018696AC14BD0409F4ECCE34
:103620000038E1E01E0750F40E94311CF50184834C
:103630000F5F1F4FFFEFAF1ABF0AECCFF5011482E7
:10364000F7CF0091760210917702102701271027FB
:1036500085E7A82E82E0B82EC0907802C00ED12E49
:10366000D11CC80186960C151D0509F4C5CE00387D
:1036700021E0120720F4F50164810E943F1CFFEF56
:10368000AF1ABF0A0F5F1F4FECCF0E94F507809162
:10369000C50284FFFACF45EC52E068E0C8010E9401
:1036A0003F09085F1F4F22E00539120781F780911B
:1036B000C50284FF0AC045EC52E060E090E080E083
:1036C0000E943F0910929502ECCC0E94F507EFCFC3
:1036D000F8949AB15B9A892F8C608AB98BB187254F
:1036E0008BB93FE748E381E0315040408040E1F74B
:1036F00000C000008BB187258BB99AB95B9878948C
:10370000D0CC60E085E290E00E943F1C0E94090E50
:103710000E945E0E61E282E290E00E943F1C61E145
:1037200083E290E00E943F1C66E084E290E00E9409
:103730003F1C79CC85E290E00E94311C1092770208
:10374000109278021092790280937A0255CE2D322F
:10375000314008F0B0CDE6CD2D32314008F05FCDDC
:1037600095CD78941F921FB61F9211248F939F932B
:10377000AF93BF938091EB019091EC01A091ED018B
:10378000B091EE010196A11DB11D8093EB019093C4
:10379000EC01A093ED01B093EE01BF91AF919F9129
:1037A0008F911F901FBE1F9018951F921FB61F92DA
:1037B00011248F939F93AF93BF938091C001811188
:1037C00013C08091EB019091EC01A091ED01B091BB
:1037D000EE014196A11DB11D8093EB019093EC0188
:1037E000A093ED01B093EE01BF91AF919F918F91A6
:1037F0001F901FBE1F90189597FB072E16F400947C
:1038000007D077FD09D00E941D1C07FC05D03EF4AF
:10381000909581959F4F0895709561957F4F08957C
:10382000EE0FFF1F0590F491E02D0994692796276C
:1038300069277827872778270895AA1BBB1B51E1A2
:1038400007C0AA1FBB1FA617B70710F0A61BB70B10
:10385000881F991F5A95A9F780959095BC01CD01B5
:103860000895F999FECF92BD81BDF89A992780B548
:103870000895A8E1B0E042E050E00C94651C262FCA
:10388000F999FECF92BD81BDF89A019700B4021656
:1038900039F01FBA20BD0FB6F894FA9AF99A0FBE04
:1038A00008950396272F0E94401C0E943F1C252F3D
:1038B0000E94401C242F0C94401C0196272F0E942C
:1038C000401C0C943F1CDC01CB01FC01F999FECF9C
:1038D00006C0F2BDE1BDF89A319600B40D92415098
:1038E0005040B8F70895F894FFCFF40DF40DFD0D96
:1038F000FD0DFF0DFD0DFD0DFD0DF40DF40D040E80
:10390000FD0DFD0D040EE011E01153125312AD1226
:10391000C71217121712D212A813B913B913F81934
:10392000FF194C1A621A721A961A5F1A5F1A5F1AF6
:103930005F1A5F1A991A9C1AA21ACC1AF11AF41A71
:04394000F81A211B35
:10394400F703D4096809A1099D09FF5A818283E21A
:1039540000E900EA00B500B600B700CD008301CC51
:10396400008A0192019401210223022402250226E5
:103974000227022A02B300B4006F0070003134330E
:0E3984003265646390629161609430979600A2
:00000001FF
